:100000000C9462000C948A000C948A000C948A0070
:100010000C948A000C948A000C948A000C948A0038
:100020000C948A000C948A000C948A000C948A0028
:100030000C948A000C948A000C948A000C948A0018
:100040000C94B0030C948A000C947E030C94580317
:100050000C948A000C948A000C948A000C948A00F8
:100060000C948A000C948A000000000024002700F1
:100070002A000000000023002600290000000000E4
:10008000250028002B0004040404040404040202D4
:100090000202020203030303030301020408102007
:1000A0004080010204081020010204081020000012
:1000B0000008000201000003040700000000000027
:1000C00000001F0511241FBECFEFD8E0DEBFCDBF5B
:1000D00011E0A0E0B1E0E6EFFAE002C005900D9279
:1000E000A837B107D9F722E0A8E7B1E001C01D9217
:1000F000AE31B207E1F710E0C2E6D0E004C02197CC
:10010000FE010E946E05C136D107C9F70E94FA03AD
:100110000C9479050C9400008CBD9DBD0895CF9280
:10012000DF92EF92FF920F931F93CF93DF936C01B7
:100130007A018B01C0E0D0E0CE15DF0581F0D80157
:100140006D918D01D601ED91FC910190F081E02D32
:10015000C6010995892B11F02196EECF7E01C701CA
:10016000DF91CF911F910F91FF90EF90DF90CF9093
:100170000895089580E090E00895FC01538D448D2A
:10018000252F30E0842F90E0821B930B541710F042
:10019000CF96089501970895FC01918D828D98174F
:1001A00061F0828DDF01A80FB11D5D968C91928D5B
:1001B0009F5F9F73928F90E008958FEF9FEF089558
:1001C000FC01918D828D981731F0828DE80FF11D21
:1001D000858D90E008958FEF9FEF0895FC01918D3C
:1001E000228D892F90E0805C9F4F821B91098F7335
:1001F0009927089581E891E00E94EE0021E0892B83
:1002000009F420E0822F0895FC01848DDF01A80FFE
:10021000B11DA35ABF4F2C91848D90E001968F732E
:100220009927848FA689B7892C93A089B1898C914D
:10023000837080648C93938D848D981306C002889C
:10024000F389E02D80818F7D80830895EF92FF9266
:100250000F931F93CF93DF93EC0181E0888F9B8DE9
:100260008C8D981305C0E889F989808185FD26C0A9
:10027000F62E0B8D10E00F5F1F4F0F731127E02E2E
:100280008C8DE8120CC00FB607FCFACFE889F9890B
:10029000808185FFF5CFCE010E940401F1CF8B8DC7
:1002A000FE01E80FF11DE35AFF4FF0829FB7F8946B
:1002B0000B8FEA89FB89808180620AC09FB7F8941E
:1002C000EE89FF896083E889F98980818370806481
:1002D00080839FBF81E090E0DF91CF911F910F91CC
:1002E000FF90EF900895CF93DF93EC01888D8823E2
:1002F000C9F0EA89FB89808185FD05C0A889B98993
:100300008C9186FD0FC00FB607FCF5CF808185FF6D
:10031000F2CFA889B9898C9185FFEDCFCE010E94DB
:100320000401E7CFDF91CF91089580E090E0892B21
:1003300029F00E94FA0081110C9400000895833086
:1003400081F028F4813099F08230A1F0089587304F
:10035000A9F08830B9F08430D1F4809180008F7D8D
:1003600003C0809180008F7780938000089584B5CA
:100370008F7702C084B58F7D84BD08958091B000D1
:100380008F7703C08091B0008F7D8093B000089577
:100390001F93CF93DF93E8EBF0E09491E4EAF0E071
:1003A000D491E0E9F0E0C491CC23D1F0182F992347
:1003B00019F0892F0E949F01EC2FF0E0EE0FFF1F34
:1003C000E458FF4FA591B4919FB7F894111104C060
:1003D0008C91D095D82302C0EC91DE2BDC939FBF8B
:1003E000DF91CF911F910895CF93DF93EAEBF0E077
:1003F0008491E6EAF0E0D491E2E9F0E0C491CC2304
:1004000091F081110E949F01EC2FF0E0EE0FFF1F91
:10041000EE58FF4FA591B491EC91ED2381E090E06F
:1004200021F480E002C080E090E0DF91CF91089558
:10043000CF93DF9390E0FC01E656FF4F2491FC013F
:10044000EA57FF4F8491882361F190E0880F991F4C
:10045000FC01E859FF4FC591D491FC01E458FF4FCE
:10046000A591B491611109C09FB7F8948881209536
:1004700082238883EC912E230BC0623061F49FB7F6
:10048000F8948881322F309583238883EC912E2B2A
:100490002C939FBF06C08FB7F894E8812E2B28833A
:1004A0008FBFDF91CF9108953FB7F89480917D0180
:1004B00090917E01A0917F01B091800126B5A89B0B
:1004C00005C02F3F19F00196A11DB11D3FBFBA2FE6
:1004D000A92F982F8827820F911DA11DB11DBC0146
:1004E000CD0143E0660F771F881F991F4A95D1F70A
:1004F00008958F929F92AF92BF92CF92DF92EF9228
:10050000FF926B017C010E9454024B015C01C114FB
:10051000D104E104F104F1F00E945402DC01CB01AA
:1005200088199909AA09BB09883E9340A105B1051C
:1005300070F321E0C21AD108E108F10888EE880EB4
:1005400083E0981EA11CB11CC114D104E104F10484
:1005500019F7DDCFFF90EF90DF90CF90BF90AF9075
:100560009F908F90089508958EBD00000DB407FEF2
:10057000FDCF8EB50895CF93DF93EC0180E591E038
:100580000E948C0080E00E94C8010E94F401019743
:10059000E1F361E070E080E090E00E947902888100
:1005A000806C0E94B40280E00E94B402C82F81E0F7
:1005B0000E94C8018C2FDF91CF910895CF93DF93D4
:1005C000EC0180E591E00E948C0080E00E94C8016F
:1005D0000E94F4010197E1F361E070E080E090E0B7
:1005E0000E94790288810E94B402C82F81E00E9493
:1005F000C8018C2FDF91CF9108958F929F92AF9277
:10060000BF920F931F93CF93DF93CDB7DEB7A19720
:100610000FB6F894DEBF0FBECDBF19A2423008F46A
:100620004AE08E010F5D1F4F842E912CA12CB12C1E
:10063000A50194010E944C05E62FB901CA010150A1
:100640001109EA3014F4E05D01C0E95CD801EC93D3
:10065000232B242B252B61F70115110571F0F801CF
:1006600001900020E9F73197AF01401B510BB80111
:1006700081E891E00E948F0002C080E090E0A196A6
:100680000FB6F894DEBF0FBECDBFDF91CF911F91A3
:100690000F91BF90AF909F908F90089542E050E0EF
:1006A00065E771E081E891E00C948F000E94740589
:1006B0001F920F920FB60F9211242F933F934F93D7
:1006C0005F936F937F938F939F93AF93BF93EF93BA
:1006D000FF9381E891E00E940401FF91EF91BF91A7
:1006E000AF919F918F917F916F915F914F913F91CA
:1006F0002F910F900FBE0F901F9018951F920F9281
:100700000FB60F9211242F938F939F93EF93FF9324
:10071000E0919101F09192018081E0919701F09137
:10072000980182FD12C0908180919A018F5F8F7332
:1007300020919B01821751F0E0919A01F0E0EF5770
:10074000FE4F958F80939A0101C08081FF91EF91B8
:100750009F918F912F910F900FBE0F901F90189522
:100760001F920F920FB60F9211242F933F938F93E6
:100770009F93AF93BF938091790190917A01A0915B
:100780007B01B0917C013091780126E0230F2D3759
:1007900020F40296A11DB11D05C029E8230F039680
:1007A000A11DB11D209378018093790190937A0166
:1007B000A0937B01B0937C0180917D0190917E019B
:1007C000A0917F01B09180010196A11DB11D809380
:1007D0007D0190937E01A0937F01B0938001BF9132
:1007E000AF919F918F913F912F910F900FBE0F90DE
:1007F0001F901895CF93DF931F92CDB7DEB77894F3
:1008000084B5826084BD84B5816084BD85B5826015
:1008100085BD85B5816085BD80916E0081608093C6
:100820006E0010928100809181008260809381002F
:10083000809181008160809381008091800081603F
:10084000809380008091B10084608093B10080919A
:10085000B00081608093B00080917A0084608093C2
:100860007A0080917A00826080937A0080917A0089
:100870008E7F80937A0080917A00806880937A00DE
:100880001092C10061E08AE00E94180281E00E949B
:10089000C80161E08BE00E94180260E08CE00E94D9
:1008A000180261E08DE00E94180260E083E00E947F
:1008B000180260E082E00E941802E0919101F0913C
:1008C000920182E08083E0918D01F0918E0110828F
:1008D000E0918F01F091900187E680831092990159
:1008E000E0919501F091960186E08083E09193017B
:1008F000F0919401808180618083E0919301F09177
:100900009401808188608083E0919301F09194014B
:10091000808180688083E0919301F09194018081CF
:100920008F7D808380E591E00E948C0080E00E94B2
:10093000C80180E30E94B40264E670E080E090E0C9
:100940000E94790205E111E083E7E82E81E0F82EAC
:10095000E016F10631F0F80181918F010E94B40296
:10096000F7CF84E30E94B40281E00E94C80184E1D1
:1009700091E00E94DE0283E191E00E94DE0282E1CA
:1009800091E00E94DE0264E670E080E090E00E9468
:1009900079021AE30E944E0380E591E00E948C00E8
:1009A00080E00E94C8010E94F4010197E1F361E038
:1009B00070E080E090E00E9479028FE70E94B4022C
:1009C00085E00E94B40285E00E94B40285E00E94A6
:1009D000B40281E00E94C8011983CE0101960E94F1
:1009E000BB02682F70E080E090E04AE00E94FD02C8
:1009F0000E944E0384E791E00E94DE021983CE013B
:100A000001960E94BB02682F70E080E090E04AE00F
:100A10000E94FD020E944E0361E070E080E090E0E1
:100A20000E94790283E791E00E94DE0264E670E0B2
:100A300080E090E00E9479020E949501ABCFE1E84E
:100A4000F1E01382128288EE93E0A0E0B0E08483AC
:100A50009583A683B78384E091E09183808385ECBE
:100A600090E09587848784EC90E09787868780EC78
:100A700090E0918B808B81EC90E0938B828B82EC69
:100A800090E0958B848B86EC90E0978B868B118E13
:100A9000128E138E148E0895A1E21A2EAA1BBB1B70
:100AA000FD010DC0AA1FBB1FEE1FFF1FA217B3073A
:100AB000E407F50720F0A21BB30BE40BF50B661F50
:100AC000771F881F991F1A9469F760957095809514
:100AD00090959B01AC01BD01CF010895EE0FFF1F62
:100AE0000590F491E02D099481E090E0F8940C9445
:060AF0007905F894FFCF28
:100AF6000000000026018F00BD007301EE00CC004F
:100B0600E000313A360029012E0206030704D30518
:100B16009106000704080109000A000B0C0C000DE1
:100B2600100EB00F72102511831213132214F8152C
:100B360062160717301818191D1A1C1BC71C001D32
:100B4600B01E871F6B20FB21B6221023E9242A251D
:100B560000261F2741280029592A7F2B3F2C882D44
:080B6600312E093B350D0A0098
:00000001FF
