:100000000C9462000C948A000C948A000C948A0070
:100010000C948A000C948A000C948A000C948A0038
:100020000C948A000C948A000C948A000C948A0028
:100030000C948A000C948A000C948A000C948A0018
:100040000C94FB020C948A000C94C9020C94A30239
:100050000C948A000C948A000C948A000C948A00F8
:100060000C948A000C948A000000000023002600F3
:10007000290000000000240027002A0000000000E2
:10008000250028002B0004040404040404040202D4
:100090000202020203030303030301020408102007
:1000A0004080010204081020010204081020000012
:1000B0000008000201000003040700000000000027
:1000C0000000380411241FBECFEFD8E0DEBFCDBF43
:1000D00011E0A0E0B1E0E4EEF8E002C005900D927E
:1000E000A834B107D9F721E0A8E4B1E001C01D921E
:1000F000AE3EB207E1F710E0C2E6D0E004C02197BF
:10010000FE010E946504C136D107C9F70E9445036C
:100110000C9470040C940000CF92DF92EF92FF9247
:100120000F931F93CF93DF936C017A018B01C0E093
:10013000D0E0CE15DF0581F0D8016D918D01D6019B
:10014000ED91FC910190F081E02DC6010995892B7C
:1001500011F02196EECF7E01C701DF91CF911F9163
:100160000F91FF90EF90DF90CF900895089580E079
:1001700090E00895FC01538D448D252F30E0842FAD
:1001800090E0821B930B541710F0CF9608950197BF
:100190000895FC01918D828D981761F0828DDF01A9
:1001A000A80FB11D5D968C91928D9F5F9F73928F6A
:1001B00090E008958FEF9FEF0895FC01918D828D5F
:1001C000981731F0828DE80FF11D858D90E008952C
:1001D0008FEF9FEF0895FC01918D228D892F90E084
:1001E000805C9F4F821B91098F739927089581E549
:1001F00091E00E94EB0021E0892B09F420E0822F9E
:100200000895FC01848DDF01A80FB11DA35ABF4FD3
:100210002C91848D90E001968F739927848FA68905
:10022000B7892C93A089B1898C91837080648C9359
:10023000938D848D981306C00288F389E02D808108
:100240008F7D80830895EF92FF920F931F93CF933A
:10025000DF93EC0181E0888F9B8D8C8D981305C016
:10026000E889F989808185FD26C0F62E0B8D10E086
:100270000F5F1F4F0F731127E02E8C8DE8120CC0FB
:100280000FB607FCFACFE889F989808185FFF5CFA1
:10029000CE010E940101F1CF8B8DFE01E80FF11D0F
:1002A000E35AFF4FF0829FB7F8940B8FEA89FB89DE
:1002B000808180620AC09FB7F894EE89FF896083CD
:1002C000E889F98980818370806480839FBF81E0A1
:1002D00090E0DF91CF911F910F91FF90EF900895E3
:1002E000CF93DF93EC01888D8823C9F0EA89FB89DD
:1002F000808185FD05C0A889B9898C9186FD0FC0D4
:100300000FB607FCF5CF808185FFF2CFA889B989A8
:100310008C9185FFEDCFCE010E940101E7CFDF91E7
:10032000CF91089580E090E0892B29F00E94F7009A
:1003300081110C9400000895833081F028F48130FD
:1003400099F08230A1F008958730A9F08830B9F093
:100350008430D1F4809180008F7D03C08091800033
:100360008F7780938000089584B58F7702C084B51D
:100370008F7D84BD08958091B0008F7703C08091F8
:10038000B0008F7D8093B00008951F93CF93DF93CB
:10039000E8EBF0E09491E4EAF0E0D491E0E9F0E0F9
:1003A000C491CC23D1F0182F992319F0892F0E94E2
:1003B0009C01EC2FF0E0EE0FFF1FE458FF4FA591DA
:1003C000B4919FB7F894111104C08C91D095D823A3
:1003D00002C0EC91DE2BDC939FBFDF91CF911F9188
:1003E0000895CF93DF9390E0FC01E656FF4F2491F0
:1003F000FC01EA57FF4F8491882361F190E0880F58
:10040000991FFC01EE58FF4FC591D491FC01E458AF
:10041000FF4FA591B491611109C09FB7F8948881ED
:10042000209582238883EC912E230BC0623061F4E7
:100430009FB7F8948881322F309583238883EC917D
:100440002E2B2C939FBF06C08FB7F894E8812E2BDC
:1004500028838FBFDF91CF9108953FB7F8948091A3
:100460004D0190914E01A0914F01B091500126B5E0
:10047000A89B05C02F3F19F00196A11DB11D3FBFDC
:10048000BA2FA92F982F8827820F911DA11DB11D6A
:10049000BC01CD0143E0660F771F881F991F4A9565
:1004A000D1F7089581E00C94C501CF92DF92EF92CD
:1004B000FF920F931F93CF93DF9380E58CBD81E074
:1004C0008DBD80E00E94C501CAEBD0E006EA10E0D5
:1004D00092E9E92E90E0F92EFE018491F801C49092
:1004E000F701D490DD2071F081110E949C01ED2D67
:1004F000F0E0EE0FFF1FE859FF4FA591B4918C91EA
:100500008C2151F7DF91CF911F910F91FF90EF90C8
:10051000DF90CF9008958EBD00000DB407FEFDCF93
:100520008EB50895CF93DF93EC010E945502888128
:100530000E948B02C82F0E9452028C2FDF91CF9114
:1005400008950E946B041F920F920FB60F92112410
:100550002F933F934F935F936F937F938F939F93CB
:10056000AF93BF93EF93FF9381E591E00E94010168
:10057000FF91EF91BF91AF919F918F917F916F917B
:100580005F914F913F912F910F900FBE0F901F9051
:1005900018951F920F920FB60F9211242F938F93DD
:1005A0009F93EF93FF93E0916101F091620180814D
:1005B000E0916701F091680182FD12C09081809105
:1005C0006A018F5F8F7320916B01821751F0E09168
:1005D0006A01F0E0EF5AFE4F958F80936A0101C0E7
:1005E0008081FF91EF919F918F912F910F900FBE7E
:1005F0000F901F9018951F920F920FB60F92112413
:100600002F933F938F939F93AF93BF938091490113
:1006100090914A01A0914B01B0914C013091480159
:1006200026E0230F2D3720F40296A11DB11D05C031
:1006300029E8230F0396A11DB11D20934801809343
:10064000490190934A01A0934B01B0934C018091D2
:100650004D0190914E01A0914F01B0915001019632
:10066000A11DB11D80934D0190934E01A0934F01A8
:10067000B0935001BF91AF919F918F913F912F9176
:100680000F900FBE0F901F901895789484B58260DC
:1006900084BD84B5816084BD85B5826085BD85B526
:1006A000816085BD80916E00816080936E001092A4
:1006B000810080918100826080938100809181001F
:1006C00081608093810080918000816080938000B0
:1006D0008091B10084608093B1008091B00081600E
:1006E0008093B00080917A00846080937A0080913A
:1006F0007A00826080937A0080917A008E7F809366
:100700007A0080917A00806880937A001092C1000C
:1007100061E08AE00E94F10181E00E94C50161E090
:100720008BE00E94F10160E08CE00E94F10161E049
:100730008DE00E94F10160E083E00E94F10160E041
:1007400082E00E94F101E0916101F091620182E09A
:100750008083E0915D01F0915E011082E0915F0184
:10076000F091600187E6808310926901E091650154
:10077000F091660186E08083E0916301F09164016D
:10078000808180618083E0916301F09164018081C8
:1007900088608083E0916301F091640180818068CA
:1007A0008083E0916301F091640180818F7D80837B
:1007B000C5E1D1E005E411E00E94550288810E9464
:1007C0008B0289810E948B020E94520222960C1792
:1007D0001D0791F784E191E00E94920283E191E08C
:1007E0000E94920285E491E00E94920282E191E0EF
:1007F0000E9492020E9455028FE70E948B0280E5C0
:100800000E948B0280E50E948B020E94520286E4C5
:1008100091E00E94920285E491E00E9492020E947F
:100820002D024B015C018FE0C82ED12CE12CF12C64
:100830000E942D02DC01CB0188199909AA09BB0984
:10084000883E9340A105B10598F321E0C21AD10872
:10085000E108F10888EE880E83E0981EA11CB11C07
:10086000C114D104E104F10419F70E949201C2CF2E
:10087000E1E5F1E01382128288EE93E0A0E0B0E0BF
:1008800084839583A683B78384E091E091838083FA
:1008900085EC90E09587848784EC90E09787868745
:1008A00080EC90E0918B808B81EC90E0938B828B3D
:1008B00082EC90E0958B848B86EC90E0978B868B16
:1008C000118E128E138E148E0895EE0FFF1F059059
:1008D000F491E02D099481E090E0F8940C94700478
:0408E000F894FFCFBA
:1008E4000000000023018C00BA007001EB00C90075
:1008F400DD00313A3602060347010200040B060DFF
:10090400100EB10F3A10F511831230134215151859
:1009140018191620FB221123E9242A2500261F2C4E
:08092400812D352E093B350041
:00000001FF
