:100000000C9462000C948A000C948A000C948A0070
:100010000C948A000C948A000C948A000C948A0038
:100020000C948A000C948A000C948A000C948A0028
:100030000C948A000C948A000C948A000C948A0018
:100040000C9496030C948A000C9464030C943E0365
:100050000C948A000C948A000C948A000C948A00F8
:100060000C948A000C948A000000000023002600F3
:10007000290000000000240027002A0000000000E2
:10008000250028002B0004040404040404040202D4
:100090000202020203030303030301020408102007
:1000A0004080010204081020010204081020000012
:1000B0000008000201000003040700000000000027
:1000C0000000DF0411241FBECFEFD8E0DEBFCDBF9C
:1000D00011E0A0E0B1E0E6E7FAE002C005900D9281
:1000E000A833B107D9F721E0A8E3B1E001C01D9220
:1000F000AE3DB207E1F710E0C2E6D0E004C02197C0
:10010000FE010E942E05C136D107C9F70E94E00307
:100110000C9439050C940000CF92DF92EF92FF927D
:100120000F931F93CF93DF936C017A018B01C0E093
:10013000D0E0CE15DF0581F0D8016D918D01D6019B
:10014000ED91FC910190F081E02DC6010995892B7C
:1001500011F02196EECF7E01C701DF91CF911F9163
:100160000F91FF90EF90DF90CF900895089580E079
:1001700090E00895FC01538D448D252F30E0842FAD
:1001800090E0821B930B541710F0CF9608950197BF
:100190000895FC01918D828D981761F0828DDF01A9
:1001A000A80FB11D5D968C91928D9F5F9F73928F6A
:1001B00090E008958FEF9FEF0895FC01918D828D5F
:1001C000981731F0828DE80FF11D858D90E008952C
:1001D0008FEF9FEF0895FC01918D228D892F90E084
:1001E000805C9F4F821B91098F739927089581E44A
:1001F00091E00E94EB0021E0892B09F420E0822F9E
:100200000895FC01848DDF01A80FB11DA35ABF4FD3
:100210002C91848D90E001968F739927848FA68905
:10022000B7892C93A089B1898C91837080648C9359
:10023000938D848D981306C00288F389E02D808108
:100240008F7D80830895EF92FF920F931F93CF933A
:10025000DF93EC0181E0888F9B8D8C8D981305C016
:10026000E889F989808185FD26C0F62E0B8D10E086
:100270000F5F1F4F0F731127E02E8C8DE8120CC0FB
:100280000FB607FCFACFE889F989808185FFF5CFA1
:10029000CE010E940101F1CF8B8DFE01E80FF11D0F
:1002A000E35AFF4FF0829FB7F8940B8FEA89FB89DE
:1002B000808180620AC09FB7F894EE89FF896083CD
:1002C000E889F98980818370806480839FBF81E0A1
:1002D00090E0DF91CF911F910F91FF90EF900895E3
:1002E000CF93DF93EC01888D8823C9F0EA89FB89DD
:1002F000808185FD05C0A889B9898C9186FD0FC0D4
:100300000FB607FCF5CF808185FFF2CFA889B989A8
:100310008C9185FFEDCFCE010E940101E7CFDF91E7
:10032000CF91089580E090E0892B29F00E94F7009A
:1003300081110C9400000895833081F028F48130FD
:1003400099F08230A1F008958730A9F08830B9F093
:100350008430D1F4809180008F7D03C08091800033
:100360008F7780938000089584B58F7702C084B51D
:100370008F7D84BD08958091B0008F7703C08091F8
:10038000B0008F7D8093B00008951F93CF93DF93CB
:10039000E8EBF0E09491E4EAF0E0D491E0E9F0E0F9
:1003A000C491CC23D1F0182F992319F0892F0E94E2
:1003B0009C01EC2FF0E0EE0FFF1FE458FF4FA591DA
:1003C000B4919FB7F894111104C08C91D095D823A3
:1003D00002C0EC91DE2BDC939FBFDF91CF911F9188
:1003E0000895CF93DF9390E0FC01E656FF4F2491F0
:1003F000FC01EA57FF4F8491882361F190E0880F58
:10040000991FFC01EE58FF4FC591D491FC01E458AF
:10041000FF4FA591B491611109C09FB7F8948881ED
:10042000209582238883EC912E230BC0623061F4E7
:100430009FB7F8948881322F309583238883EC917D
:100440002E2B2C939FBF06C08FB7F894E8812E2BDC
:1004500028838FBFDF91CF9108953FB7F8948091A3
:100460003D0190913E01A0913F01B091400126B520
:10047000A89B05C02F3F19F00196A11DB11D3FBFDC
:10048000BA2FA92F982F8827820F911DA11DB11D6A
:10049000BC01CD0143E0660F771F881F991F4A9565
:1004A000D1F708958F929F92AF92BF92CF92DF9231
:1004B000EF92FF926B017C010E942D024B015C01C7
:1004C000C114D104E104F104F1F00E942D02DC0119
:1004D000CB0188199909AA09BB09883E9340A10557
:1004E000B10570F321E0C21AD108E108F10888EEE5
:1004F000880E83E0981EA11CB11CC114D104E10434
:10050000F10419F7DDCFFF90EF90DF90CF90BF900F
:10051000AF909F908F90089581E00C94C501CF9289
:10052000DF92EF92FF920F931F93CF93DF9380E5BB
:100530008CBD81E08DBD80E00E94C501CAEBD0E09A
:1005400006EA10E092E9E92E90E0F92EFE0184918E
:10055000F801C490F701D490D1100EC061E070E0B2
:1005600080E090E0DF91CF911F910F91FF90EF908D
:10057000DF90CF900C94520281110E949C01ED2DCE
:10058000F0E0EE0FFF1FE859FF4FA591B4918C9159
:100590008C2121F3DBCF8EBD00000DB407FEFDCF13
:1005A0008EB50895CF93DF93EC010E948F0288816E
:1005B00080680E94CB0280E00E94CB02C82F0E947C
:1005C0008C028C2FDF91CF910895009769F0FC0188
:1005D00001900020E9F73197AF01481B590BBC018E
:1005E00081E491E00C948C0080E090E0089589E231
:1005F00091E00C94E5028F929F92AF92BF920F937D
:100600001F93CF93DF93CDB7DEB7A1970FB6F894C2
:10061000DEBF0FBECDBF19A2423008F44AE08E0102
:100620000F5D1F4F842E912CA12CB12CA50194019C
:100630000E940C05E62FB901CA0101501109EA30E8
:1006400014F4E05D01C0E95CD801EC93232B242B6A
:10065000252B61F7C8010E94E502A1960FB6F89418
:10066000DEBF0FBECDBFDF91CF911F910F91BF9025
:10067000AF909F908F9008950E9434051F920F9223
:100680000FB60F9211242F933F934F935F936F9365
:100690007F938F939F93AF93BF93EF93FF9381E4E7
:1006A00091E00E940101FF91EF91BF91AF919F9165
:1006B0008F917F916F915F914F913F912F910F900B
:1006C0000FBE0F901F9018951F920F920FB60F92AA
:1006D00011242F938F939F93EF93FF93E0915101F8
:1006E000F09152018081E0915701F091580182FD13
:1006F00012C0908180915A018F5F8F7320915B01AE
:10070000821751F0E0915A01F0E0EF5BFE4F958FB8
:1007100080935A0101C08081FF91EF919F918F9149
:100720002F910F900FBE0F901F9018951F920F9250
:100730000FB60F9211242F933F938F939F93AF93F4
:10074000BF938091390190913A01A0913B01B09102
:100750003C013091380126E0230F2D3720F402961A
:10076000A11DB11D05C029E8230F0396A11DB11DD0
:10077000209338018093390190933A01A0933B0173
:10078000B0933C0180913D0190913E01A0913F01C9
:10079000B09140010196A11DB11D80933D01909340
:1007A0003E01A0933F01B0934001BF91AF919F9153
:1007B0008F913F912F910F900FBE0F901F90189522
:1007C000CF93DF931F92CDB7DEB7789484B5826064
:1007D00084BD84B5816084BD85B5826085BD85B5E5
:1007E000816085BD80916E00816080936E00109263
:1007F00081008091810082608093810080918100DE
:10080000816080938100809180008160809380006E
:100810008091B10084608093B1008091B0008160CC
:100820008093B00080917A00846080937A008091F8
:100830007A00826080937A0080917A008E7F809324
:100840007A0080917A00806880937A001092C100CB
:1008500061E08AE00E94F10181E00E94C50161E04F
:100860008BE00E94F10160E08CE00E94F10161E008
:100870008DE00E94F10160E083E00E94F10160E000
:1008800082E00E94F101E0915101F091520182E079
:100890008083E0914D01F0914E011082E0914F0173
:1008A000F091500187E6808310925901E091550143
:1008B000F091560186E08083E0915301F09154015C
:1008C000808180618083E0915301F09154018081A7
:1008D00088608083E0915301F091540180818068A9
:1008E0008083E0915301F091540180818F7D80835A
:1008F00002E111E088E2E82E81E0F82E0E948F02EA
:10090000F80180810E94CB02F80181810E94CB0214
:100910000E948C020E5F1F4FE016F10679F70E94CD
:10092000F7020E94F7028CE291E00E94E5020E9429
:10093000F70288E291E00E94D202682F70E080E026
:1009400090E040E10E94FB020E94F7021AE30E943D
:10095000F7020E948F028FE70E94CB028FEF0E9466
:10096000CB020E948C021983CE0101960E94D20212
:10097000682F70E080E090E04AE00E94FB020E9455
:10098000F7020E948F028BE30E94CB020E948C022E
:100990001983CE0101960E94D202682F70E080E098
:1009A00090E04AE00E94FB020E94F70264E670E0D9
:1009B00080E090E00E9452020E949201C8CFE1E4E0
:1009C000F1E01382128288EE93E0A0E0B0E084832D
:1009D0009583A683B78384E091E09183808385EC3F
:1009E00090E09587848784EC90E09787868780ECF9
:1009F00090E0918B808B81EC90E0938B828B82ECEA
:100A000090E0958B848B86EC90E0978B868B118E93
:100A1000128E138E148E0895A1E21A2EAA1BBB1BF0
:100A2000FD010DC0AA1FBB1FEE1FFF1FA217B307BA
:100A3000E407F50720F0A21BB30BE40BF50B661FD0
:100A4000771F881F991F1A9469F760957095809594
:100A500090959B01AC01BD01CF010895EE0FFF1FE2
:100A60000590F491E02D099481E090E0F8940C94C5
:060A70003905F894FFCFE8
:100A76000000000023018C00BA007001EB00C900E1
:100A8600DD0003470D100EB00F3F23EA242A250090
:100A9600261F2C812D352E09030D0A002D2D2D2DF7
:080AA6002D2D2D2D2D2D00003A
:107800000C94343C0C94513C0C94513C0C94513CE1
:107810000C94513C0C94513C0C94513C0C94513CB4
:107820000C94513C0C94513C0C94513C0C94513CA4
:107830000C94513C0C94513C0C94513C0C94513C94
:107840000C94513C0C94513C0C94513C0C94513C84
:107850000C94513C0C94513C0C94513C0C94513C74
:107860000C94513C0C94513C11241FBECFEFD8E036
:10787000DEBFCDBF11E0A0E0B1E0EAE8FFE702C063
:1078800005900D92A230B107D9F712E0A2E0B1E065
:1078900001C01D92AD30B107E1F70E942D3D0C945F
:1078A000C33F0C94003C982F95959595959595958B
:1078B000905D8F708A307CF0282F295A8091C0000B
:1078C00085FFFCCF9093C6008091C00085FFFCCF60
:1078D0002093C6000895282F205DF0CF982F809127
:1078E000C00085FFFCCF9093C6000895EF92FF92F1
:1078F0000F931F93EE24FF2487018091C00087FD22
:1079000017C00894E11CF11C011D111D81E2E8164D
:1079100081EAF80687E0080780E0180770F3E09135
:107920000401F091050109958091C00087FFE9CF1E
:107930008091C6001F910F91FF90EF9008950E94D3
:10794000763C982F8091C00085FFFCCF9093C600B5
:1079500091362CF490330CF09053892F089597555D
:10796000892F08951F930E949F3C182F0E949F3CCF
:107970001295107F810F1F9108951F93182F882350
:1079800021F00E94763C1150E1F71F9108951F935A
:10799000182F0E94763C803249F0809103018F5F5E
:1079A000809303018530C1F01F9108958091C0003C
:1079B00085FFFCCF84E18093C6008091C00085FFE5
:1079C000FCCF1093C6008091C00085FFFCCF80E102
:1079D0008093C6001F910895E0910401F091050184
:1079E00009951F9108950E94763C803241F0809164
:1079F00003018F5F80930301853081F008958091AA
:107A0000C00085FFFCCF84E18093C6008091C00058
:107A100085FFFCCF80E18093C6000895E0910401CA
:107A2000F09105010995089548EC50E08823A1F0F4
:107A30002D9A28EE33E0FA013197F1F721503040CA
:107A4000D1F72D9828EE33E0FA013197F1F7215064
:107A50003040D1F7815061F708953F924F925F9285
:107A60006F927F928F929F92AF92BF92CF92DF924E
:107A7000EF92FF920F931F93CF93DF93000082E06A
:107A80008093C00080E18093C4001092C50088E11B
:107A90008093C10086E08093C2005098589A259A3E
:107AA00081E00E94143D24E1F22E9EE1E92E85E959
:107AB000D82E0FE0C02E10E1B12EAA24A394B1E479
:107AC0009B2EA6E58A2EF2E57F2EE0E26E2E79E46B
:107AD000572E63E5462E50E5352E0E94763C8033C6
:107AE000B1F18133B9F1803409F46FC0813409F404
:107AF00076C0823409F485C0853409F488C08035A5
:107B000031F1823521F1813511F1853509F485C0D6
:107B1000863509F48DC0843609F496C0843709F49B
:107B200003C1853709F472C1863709F466C08091B4
:107B300003018F5F80930301853079F6E0910401A2
:107B4000F091050109950E94763C803351F60E9420
:107B5000F33CC3CF0E94763C803249F78091C0004D
:107B600085FFFCCFF092C6008091C00085FFFCCF5E
:107B70009092C6008091C00085FFFCCF8092C60025
:107B80008091C00085FFFCCF7092C6008091C0003C
:107B900085FFFCCF6092C6008091C00085FFFCCFBE
:107BA0005092C6008091C00085FFFCCF4092C60075
:107BB0008091C00085FFFCCF3092C6008091C0004C
:107BC00085FFFCCFB092C60088CF0E94763C8638F5
:107BD00008F4BDCF0E94763C0E94F33C7ECF0E9409
:107BE000763C803809F49CC0813809F40BC1823896
:107BF00009F430C1883909F48FC080E00E94C73C85
:107C00006CCF84E10E94BD3C0E94F33C66CF85E0CE
:107C10000E94BD3C0E94F33C60CF0E94763C809362
:107C200006010E94763C809307010E94F33C55CFE9
:107C30000E94763C803309F411C183E00E94BD3C70
:107C400080E00E94C73C49CF0E94763C80930902A5
:107C50000E94763C8093080280910C028E7F809374
:107C60000C020E94763C853409F409C18091080217
:107C700090910902892B89F000E010E00E94763C87
:107C8000F801E85FFE4F80830F5F1F4F809108026D
:107C9000909109020817190788F30E94763C8032F8
:107CA00009F045CF80910C0280FFF5C0609106017C
:107CB00070910701660F771F7093070160930601AB
:107CC000A0910802B09109021097C9F0E8E0F1E034
:107CD0009B01AD014E0F5F1FF999FECF32BD21BD53
:107CE000819180BDFA9AF99A2F5F3F4FE417F5070B
:107CF00099F76A0F7B1F70930701609306018091CB
:107D0000C00085FFFCCFF092C6008091C00085FFC7
:107D1000FCCFB092C600E1CE83E00E94C73CDDCE2E
:107D200082E00E94C73CD9CE0E94763C8093090233
:107D30000E94763C80930802809106019091070191
:107D4000880F991F90930701809306010E94763C4B
:107D5000853409F49AC080910C028E7F80930C02C6
:107D60000E94763C803209F0B8CE8091C00085FF39
:107D7000FCCFF092C600A0910802B09109021097C2
:107D8000C1F180910C02082F0170182F1695117007
:107D9000E0910601F0910701AF014F5F5F4FBA011B
:107DA00020E030E00023B1F4112339F49491809164
:107DB000C00085FFFCCF9093C6002F5F3F4FCB01E3
:107DC0000196FA012A173B0780F4BC014F5F5F4F11
:107DD000002351F3F999FECFF2BDE1BDF89A90B5B9
:107DE0008091C00085FFFCCFE6CF709307016093C0
:107DF00006018091C00085FDE5CE8091C00085FF21
:107E0000F8CFE0CE81E00E94C73C67CE0E94763C6E
:107E1000803209F08CCE8091C00085FFFCCFF092BB
:107E2000C6008091C00085FFFCCFE092C600809123
:107E3000C00085FFFCCFD092C6008091C00085FFB6
:107E4000FCCFC092C6008091C00085FFFCCFB092ED
:107E5000C60043CE80E10E94C73C3FCE0E94763CE4
:107E60000E94763C182F0E94763C112309F483C0AF
:107E7000113009F484C08FE00E94C73C2ECE80915F
:107E80000C02816080930C02F1CE80910C02816023
:107E900080930C0265CF809107018823880F880B9F
:107EA0008A2180930B028091060190910701880F2F
:107EB000991F90930701809306018091080280FF2B
:107EC00009C08091080290910902019690930902DD
:107ED00080930802F894F999FECF1127E0910601EA
:107EE000F0910701C8E0D1E0809108029091090269
:107EF000103091F40091570001700130D9F303E084
:107F000000935700E8950091570001700130D9F3B4
:107F100001E100935700E8950990199000915700EE
:107F200001700130D9F301E000935700E8951395F3
:107F3000103498F011270091570001700130D9F3E7
:107F400005E000935700E89500915700017001305B
:107F5000D9F301E100935700E8953296029709F0B2
:107F6000C7CF103011F00296E5CF11248091C000E8
:107F700085FFC5CEC8CE8EE10E94C73CAECD85E957
:0A7F80000E94C73CAACDF894FFCF81
:027F8A00800075
:040000030000780081
:00000001FF