:100000000C9462000C948A000C948A000C948A0070
:100010000C948A000C948A000C948A000C948A0038
:100020000C948A000C948A000C948A000C948A0028
:100030000C948A000C948A000C948A000C948A0018
:100040000C94AE030C948A000C947C030C9456031D
:100050000C948A000C948A000C948A000C948A00F8
:100060000C948A000C948A000000000023002600F3
:10007000290000000000240027002A0000000000E2
:10008000250028002B0004040404040404040202D4
:100090000202020203030303030301020408102007
:1000A0004080010204081020010204081020000012
:1000B0000008000201000003040700000000000027
:1000C00000002C0511241FBECFEFD8E0DEBFCDBF4E
:1000D00011E0A0E0B1E0E0E1FBE002C005900D928C
:1000E000A23DB107D9F722E0A2EDB1E001C01D9217
:1000F000A837B207E1F710E0C2E6D0E004C02197CC
:10010000FE010E947B05C136D107C9F70E94F803A2
:100110000C9486050C940000CF92DF92EF92FF9230
:100120000F931F93CF93DF936C017A018B01C0E093
:10013000D0E0CE15DF0581F0D8016D918D01D6019B
:10014000ED91FC910190F081E02DC6010995892B7C
:1001500011F02196EECF7E01C701DF91CF911F9163
:100160000F91FF90EF90DF90CF900895089580E079
:1001700090E00895FC01538D448D252F30E0842FAD
:1001800090E0821B930B541710F0CF9608950197BF
:100190000895FC01918D828D981761F0828DDF01A9
:1001A000A80FB11D5D968C91928D9F5F9F73928F6A
:1001B00090E008958FEF9FEF0895FC01918D828D5F
:1001C000981731F0828DE80FF11D858D90E008952C
:1001D0008FEF9FEF0895FC01918D228D892F90E084
:1001E000805C9F4F821B91098F73992708958BED37
:1001F00091E00E94EB0021E0892B09F420E0822F9E
:100200000895FC01848DDF01A80FB11DA35ABF4FD3
:100210002C91848D90E001968F739927848FA68905
:10022000B7892C93A089B1898C91837080648C9359
:10023000938D848D981306C00288F389E02D808108
:100240008F7D80830895EF92FF920F931F93CF933A
:10025000DF93EC0181E0888F9B8D8C8D981305C016
:10026000E889F989808185FD26C0F62E0B8D10E086
:100270000F5F1F4F0F731127E02E8C8DE8120CC0FB
:100280000FB607FCFACFE889F989808185FFF5CFA1
:10029000CE010E940101F1CF8B8DFE01E80FF11D0F
:1002A000E35AFF4FF0829FB7F8940B8FEA89FB89DE
:1002B000808180620AC09FB7F894EE89FF896083CD
:1002C000E889F98980818370806480839FBF81E0A1
:1002D00090E0DF91CF911F910F91FF90EF900895E3
:1002E000CF93DF93EC01888D8823C9F0EA89FB89DD
:1002F000808185FD05C0A889B9898C9186FD0FC0D4
:100300000FB607FCF5CF808185FFF2CFA889B989A8
:100310008C9185FFEDCFCE010E940101E7CFDF91E7
:10032000CF91089580E090E0892B29F00E94F7009A
:1003300081110C9400000895833081F028F48130FD
:1003400099F08230A1F008958730A9F08830B9F093
:100350008430D1F4809180008F7D03C08091800033
:100360008F7780938000089584B58F7702C084B51D
:100370008F7D84BD08958091B0008F7703C08091F8
:10038000B0008F7D8093B00008951F93CF93DF93CB
:10039000E8EBF0E09491E4EAF0E0D491E0E9F0E0F9
:1003A000C491CC23D1F0182F992319F0892F0E94E2
:1003B0009C01EC2FF0E0EE0FFF1FE458FF4FA591DA
:1003C000B4919FB7F894111104C08C91D095D823A3
:1003D00002C0EC91DE2BDC939FBFDF91CF911F9188
:1003E0000895CF93DF9390E0FC01E656FF4F2491F0
:1003F000FC01EA57FF4F8491882361F190E0880F58
:10040000991FFC01EE58FF4FC591D491FC01E458AF
:10041000FF4FA591B491611109C09FB7F8948881ED
:10042000209582238883EC912E230BC0623061F4E7
:100430009FB7F8948881322F309583238883EC917D
:100440002E2B2C939FBF06C08FB7F894E8812E2BDC
:1004500028838FBFDF91CF9108953FB7F8948091A3
:10046000D7019091D801A091D901B091DA0126B5B8
:10047000A89B05C02F3F19F00196A11DB11D3FBFDC
:10048000BA2FA92F982F8827820F911DA11DB11D6A
:10049000BC01CD0143E0660F771F881F991F4A9565
:1004A000D1F7089581E00C94C501CF92DF92EF92CD
:1004B000FF920F931F93CF93DF9380E58CBD81E074
:1004C0008DBD80E00E94C501CAEBD0E006EA10E0D5
:1004D00092E9E92E90E0F92EFE018491F801C49092
:1004E000F701D490DD2071F081110E949C01ED2D67
:1004F000F0E0EE0FFF1FE859FF4FA591B4918C91EA
:100500008C2151F7DF91CF911F910F91FF90EF90C8
:10051000DF90CF9008958EBD00000DB407FEFDCF93
:100520008EB50895CF93DF93EC010E945502888128
:10053000806C0E948B0280E00E948B02C82F0E9478
:1005400052028C2FDF91CF910895CF93DF93EC016E
:100550000E94550288810E948B02C82F0E9452027D
:100560008C2FDF91CF910895009769F0FC010190E5
:100570000020E9F73197AF01481B590BBC018BED07
:1005800091E00C948C0080E090E008958F929F920F
:10059000AF92BF920F931F93CF93DF93CDB7DEB788
:1005A000A1970FB6F894DEBF0FBECDBF19A242309F
:1005B00008F44AE08E010F5D1F4F842E912CA12C70
:1005C000B12CA50194010E945905E62FB901CA0179
:1005D00001501109EA3014F4E05D01C0E95CD80172
:1005E000EC93232B242B252B61F7C8010E94B40226
:1005F000A1960FB6F894DEBF0FBECDBFDF91CF91AD
:100600001F910F91BF90AF909F908F900895CF93BF
:10061000DF930E94B402EC0183E491E00E94B402F3
:100620008C0F9D1FDF91CF910895CF93DF93682F9B
:1006300070E080E090E04AE00E94C602EC0183E4B2
:1006400091E00E94B4028C0F9D1FDF91CF9108951D
:100650001F93CF93DF93182FC82FD0E084E0D59558
:10066000C7958A95E1F786E491E00E94B40242E0E2
:1006700060E070E0CB010E94C60283E591E00E9439
:10068000B4026C2F677070E080E090E042E00E945E
:10069000C6028CE591E00E94B402812F8F70DF9139
:1006A000CF911F910C9415030E9481051F920F9208
:1006B0000FB60F9211242F933F934F935F936F9335
:1006C0007F938F939F93AF93BF93EF93FF938BEDA4
:1006D00091E00E940101FF91EF91BF91AF919F9135
:1006E0008F917F916F915F914F913F912F910F90DB
:1006F0000FBE0F901F9018951F920F920FB60F927A
:1007000011242F938F939F93EF93FF93E091EB012D
:10071000F091EC018081E091F101F091F20182FD14
:1007200012C090818091F4018F5F8F732091F50149
:10073000821751F0E091F401F0E0E552FE4F958F01
:100740008093F40101C08081FF91EF919F918F917F
:100750002F910F900FBE0F901F9018951F920F9220
:100760000FB60F9211242F933F938F939F93AF93C4
:10077000BF938091D3019091D401A091D501B09104
:10078000D6013091D20126E0230F2D3720F40296B6
:10079000A11DB11D05C029E8230F0396A11DB11DA0
:1007A0002093D2018093D3019093D401A093D501DB
:1007B000B093D6018091D7019091D801A091D90131
:1007C000B091DA010196A11DB11D8093D7019093DC
:1007D000D801A093D901B093DA01BF91AF919F9155
:1007E0008F913F912F910F900FBE0F901F901895F2
:1007F000CF93DF931F92CDB7DEB7789484B5826034
:1008000084BD84B5816084BD85B5826085BD85B5B4
:10081000816085BD80916E00816080936E00109232
:1008200081008091810082608093810080918100AD
:10083000816080938100809180008160809380003E
:100840008091B10084608093B1008091B00081609C
:100850008093B00080917A00846080937A008091C8
:100860007A00826080937A0080917A008E7F8093F4
:100870007A0080917A00806880937A001092C1009B
:1008800061E08AE00E94F10181E00E94C50161E01F
:100890008BE00E94F10160E08CE00E94F10161E0D8
:1008A0008DE00E94F10160E083E00E94F10160E0D0
:1008B00082E00E94F101E091EB01F091EC0182E015
:1008C0008083E091E701F091E8011082E091E90175
:1008D000F091EA0187E680831092F301E091EF0145
:1008E000F091F00186E08083E091ED01F091EE015E
:1008F000808180618083E091ED01F091EE01808143
:1009000088608083E091ED01F091EE018081806844
:100910008083E091ED01F091EE0180818F7D8083F5
:1009200005E111E091E4E92E91E0F92E0E945502D3
:10093000F80180810E948B02F80181810E948B0264
:100940000E9452020E5F1F4FE016F10679F784E114
:1009500091E00E94A50283E191E00E94A50281E45A
:1009600091E00E94A50282E191E00E94A5021AE3B3
:1009700084E791E00E9407030E9455028BEB91E00F
:100980000E9407038FE70E948B020E94280381E0E8
:100990000E948B020E9428030E94520282EC91E086
:1009A0000E9407031983CE0101960E9492020E94C1
:1009B000150386EC91E00E94070382E491E00E9417
:1009C000A5020E94280382EC91E00E94070319838C
:1009D000CE0101960E9492020E9415038BEC91E0D9
:1009E0000E94070381E491E00E94A5020E9428036F
:1009F00082EC91E00E9407031983CE0101960E94C8
:100A000092020E9415030E942D024B015C0184E6B4
:100A1000C82ED12CE12CF12C0E942D02DC01CB013F
:100A200088199909AA09BB09883E9340A105B10517
:100A300098F3F1E0CF1AD108E108F10828EE820E10
:100A400023E0921EA11CB11CC114D104E104F104E5
:100A500019F70E9492018CCFEBEDF1E01382128224
:100A600088EE93E0A0E0B0E084839583A683B7830B
:100A700084E091E09183808385EC90E09587848782
:100A800084EC90E09787868780EC90E0918B808B58
:100A900081EC90E0938B828B82EC90E0958B848B41
:100AA00086EC90E0978B868B118E128E138E148EAF
:100AB0000895A1E21A2EAA1BBB1BFD010DC0AA1F9F
:100AC000BB1FEE1FFF1FA217B307E407F50720F0B7
:100AD000A21BB30BE40BF50B661F771F881F991F32
:100AE0001A9469F760957095809590959B01AC017B
:100AF000BD01CF010895EE0FFF1F0590F491E02D89
:100B0000099481E090E0F8940C948605F894FFCF66
:100B10000000000023018C00BA007001EB00C90046
:100B2000DD00313A360206034700070B060D100EB2
:100B3000B00F3F10F5118312101362151518181914
:100B40001620FB23E9242A2500261F2C812D352E73
:100B5000093B350D0A0020434849505F5244596E05
:100B60003A20002053544154453A2000204649463B
:100B70004F5F42595445535F4156414C4941424CA5
:100B8000453A20002D2D2D2D2D2D2D2D2D2D2D2DAA
:100B90002D2D2D2D2D2D2D2D2D2D2D2D2D2D2D2D85
:100BA0002D2D2D2D2D2D2D2D2D2D2D2D2D2D2D2D75
:100BB0002D2D2D2D2D2D2D2D2D2D2D2D2D2D2D2D65
:100BC0002D2D2D2D2D2D2D2D2D2D0020577269749D
:100BD000652054583A005354583A00534654583AF2
:020BE000000013
:00000001FF
