:100000000C9462000C948A000C948A000C948A0070
:100010000C948A000C948A000C948A000C948A0038
:100020000C948A000C948A000C948A000C948A0028
:100030000C948A000C948A000C948A000C948A0018
:100040000C94BC030C948A000C948A030C946403F3
:100050000C948A000C948A000C948A000C948A00F8
:100060000C948A000C948A000000000024002700F1
:100070002A000000000023002600290000000000E4
:10008000250028002B0004040404040404040202D4
:100090000202020203030303030301020408102007
:1000A0004080010204081020010204081020000012
:1000B0000008000201000003040700000000000027
:1000C0000000600511241FBECFEFD8E0DEBFCDBF1A
:1000D00012E0A0E0B1E0E8E7FBE002C005900D927D
:1000E000AE38B107D9F723E0AEE8B2E001C01D9207
:1000F000A433B207E1F710E0C2E6D0E004C02197D4
:10010000FE010E94AF05C136D107C9F70E9406045F
:100110000C94BA050C9400008CBD9DBD0895CF923F
:10012000DF92EF92FF920F931F93CF93DF936C01B7
:100130007A018B01C0E0D0E0CE15DF0581F0D80157
:100140006D918D01D601ED91FC910190F081E02D32
:10015000C6010995892B11F02196EECF7E01C701CA
:10016000DF91CF911F910F91FF90EF90DF90CF9093
:100170000895089580E090E00895FC01538D448D2A
:10018000252F30E0842F90E0821B930B541710F042
:10019000CF96089501970895FC01918D828D98174F
:1001A00061F0828DDF01A80FB11D5D968C91928D5B
:1001B0009F5F9F73928F90E008958FEF9FEF089558
:1001C000FC01918D828D981731F0828DE80FF11D21
:1001D000858D90E008958FEF9FEF0895FC01918D3C
:1001E000228D892F90E0805C9F4F821B91098F7335
:1001F0009927089587E992E00E94EE0021E0892B7B
:1002000009F420E0822F0895FC01848DDF01A80FFE
:10021000B11DA35ABF4F2C91848D90E001968F732E
:100220009927848FA689B7892C93A089B1898C914D
:10023000837080648C93938D848D981306C002889C
:10024000F389E02D80818F7D80830895EF92FF9266
:100250000F931F93CF93DF93EC0181E0888F9B8DE9
:100260008C8D981305C0E889F989808185FD26C0A9
:10027000F62E0B8D10E00F5F1F4F0F731127E02E2E
:100280008C8DE8120CC00FB607FCFACFE889F9890B
:10029000808185FFF5CFCE010E940401F1CF8B8DC7
:1002A000FE01E80FF11DE35AFF4FF0829FB7F8946B
:1002B0000B8FEA89FB89808180620AC09FB7F8941E
:1002C000EE89FF896083E889F98980818370806481
:1002D00080839FBF81E090E0DF91CF911F910F91CC
:1002E000FF90EF900895CF93DF93EC01888D8823E2
:1002F000C9F0EA89FB89808185FD05C0A889B98993
:100300008C9186FD0FC00FB607FCF5CF808185FF6D
:10031000F2CFA889B9898C9185FFEDCFCE010E94DB
:100320000401E7CFDF91CF91089580E090E0892B21
:1003300029F00E94FA0081110C9400000895833086
:1003400081F028F4813099F08230A1F0089587304F
:10035000A9F08830B9F08430D1F4809180008F7D8D
:1003600003C0809180008F7780938000089584B5CA
:100370008F7702C084B58F7D84BD08958091B000D1
:100380008F7703C08091B0008F7D8093B000089577
:100390001F93CF93DF93E8EBF0E09491E4EAF0E071
:1003A000D491E0E9F0E0C491CC23D1F0182F992347
:1003B00019F0892F0E949F01EC2FF0E0EE0FFF1F34
:1003C000E458FF4FA591B4919FB7F894111104C060
:1003D0008C91D095D82302C0EC91DE2BDC939FBF8B
:1003E000DF91CF911F910895CF93DF93EAEBF0E077
:1003F0008491E6EAF0E0D491E2E9F0E0C491CC2304
:1004000091F081110E949F01EC2FF0E0EE0FFF1F91
:10041000EE58FF4FA591B491EC91ED2381E090E06F
:1004200021F480E002C080E090E0DF91CF91089558
:10043000CF93DF9390E0FC01E656FF4F2491FC013F
:10044000EA57FF4F8491882361F190E0880F991F4C
:10045000FC01E859FF4FC591D491FC01E458FF4FCE
:10046000A591B491611109C09FB7F8948881209536
:1004700082238883EC912E230BC0623061F49FB7F6
:10048000F8948881322F309583238883EC912E2B2A
:100490002C939FBF06C08FB7F894E8812E2B28833A
:1004A0008FBFDF91CF9108953FB7F8948091930269
:1004B00090919402A0919502B091960226B5A89BC6
:1004C00005C02F3F19F00196A11DB11D3FBFBA2FE6
:1004D000A92F982F8827820F911DA11DB11DBC0146
:1004E000CD0143E0660F771F881F991F4A95D1F70A
:1004F00008958F929F92AF92BF92CF92DF92EF9228
:10050000FF926B017C010E9454024B015C01C114FB
:10051000D104E104F104F1F00E945402DC01CB01AA
:1005200088199909AA09BB09883E9340A105B1051C
:1005300070F321E0C21AD108E108F10888EE880EB4
:1005400083E0981EA11CB11CC114D104E104F10484
:1005500019F7DDCFFF90EF90DF90CF90BF90AF9075
:100560009F908F90089508958EBD00000DB407FEF2
:10057000FDCF8EB50895CF93DF93EC0180E591E038
:100580000E948C0080E00E94C8010E94F401019743
:10059000E1F361E070E080E090E00E947902888100
:1005A000806C0E94B40280E00E94B402C82F81E0F7
:1005B0000E94C8018C2FDF91CF910895CF93DF93D4
:1005C000EC0180E591E00E948C0080E00E94C8016F
:1005D0000E94F4010197E1F361E070E080E090E0B7
:1005E0000E94790288810E94B402C82F81E00E9493
:1005F000C8018C2FDF91CF910895009769F0FC011D
:1006000001900020E9F73197AF01481B590BBC015D
:1006100087E992E00C948F0080E090E00895CF93FA
:10062000DF930E94FD02EC0185E791E00E94FD024C
:100630008C0F9D1FDF91CF910895CF92DF92EF92A3
:10064000FF920F931F93CF93DF93CDB7DEB7A197A0
:100650000FB6F894DEBF0FBECDBF282F30E040E0CC
:1006600050E019A28E010F5D1F4F8AE0C82ED12CD9
:10067000E12CF12CCA01B901A70196010E948D0558
:10068000605DF80162938F01211531054105510527
:1006900089F7CF010E94FD028C0185E791E00E945D
:1006A000FD02800F911FA1960FB6F894DEBF0FBE1A
:1006B000CDBFDF91CF911F910F91FF90EF90DF9011
:1006C000CF9008950E94B5051F920F920FB60F921A
:1006D00011242F933F934F935F936F937F938F9347
:1006E0009F93AF93BF93EF93FF9387E992E00E94AC
:1006F0000401FF91EF91BF91AF919F918F917F91F5
:100700006F915F914F913F912F910F900FBE0F907E
:100710001F9018951F920F920FB60F9211242F93CE
:100720008F939F93EF93FF93E091A702F091A8021C
:100730008081E091AD02F091AE0282FD12C0908105
:100740008091B0028F5F8F732091B102821751F0B8
:10075000E091B002F0E0E956FD4F958F8093B00232
:1007600001C08081FF91EF919F918F912F910F9008
:100770000FBE0F901F9018951F920F920FB60F92F9
:1007800011242F933F938F939F93AF93BF938091A7
:100790008F0290919002A0919102B09192023091BB
:1007A0008E0226E0230F2D3720F40296A11DB11DE5
:1007B00005C029E8230F0396A11DB11D20938E02C9
:1007C00080938F0290939002A0939102B093920233
:1007D0008091930290919402A0919502B09196021B
:1007E0000196A11DB11D8093930290939402A09352
:1007F0009502B0939602BF91AF919F918F913F91D7
:100800002F910F900FBE0F901F901895CF93DF93ED
:100810001F92CDB7DEB7789484B5826084BD84B56D
:10082000816084BD85B5826085BD85B5816085BDEB
:1008300080916E00816080936E00109281008091A3
:10084000810082608093810080918100816080932B
:100850008100809180008160809380008091B10050
:1008600084608093B1008091B00081608093B0007B
:1008700080917A00846080937A0080917A0082600F
:1008800080937A0080917A008E7F80937A008091A5
:100890007A00806880937A001092C10061E08AE05B
:1008A0000E94180281E00E94C80160E083E00E947B
:1008B000180260E082E00E941802E091A702F09125
:1008C000A80282E08083E091A302F091A40210824A
:1008D000E091A502F091A60287E680831092AF0214
:1008E000E091AB02F091AC0286E08083E091A90236
:1008F000F091AA02808180618083E091A902F09149
:10090000AA02808188608083E091A902F091AA0206
:10091000808180688083E091A902F091AA028081A1
:100920008F7D808380E591E00E948C0080E00E94B2
:10093000C80180E30E94B40264E670E080E090E0C9
:100940000E94790205E111E081E00337180731F0D8
:10095000F80181918F010E94B402F6CF84E30E94D6
:10096000B40281E00E94C80184E191E00E94DE02AD
:1009700083E191E00E94DE0282E191E00E94DE02CA
:1009800064E670E080E090E00E9479020AE380E58E
:1009900091E00E948C0080E00E94C8010E94F40156
:1009A0000197E1F361E070E080E090E00E9479025D
:1009B0008FE70E94B40284E00E94B40282E00E94A9
:1009C000B40283E00E94B40285E00E94B40286E093
:1009D0000E94B40281E00E94C8010983CE01019601
:1009E0000E94BB020E941D0384E791E00E94DE0288
:1009F000982F907FE92EF12C94E0F594E7949A9546
:100A0000E1F78E70182F169588E791E00E940F038A
:100A1000111103C085E991E022C0113019F482E37D
:100A200092E01DC0123019F481E692E018C0133034
:100A300019F48AE991E013C0143019F488EA91E0BE
:100A40000EC0153019F485ED91E009C0163019F487
:100A500085EE91E004C0173021F485E392E00E9416
:100A60000F0384E692E00E94FD028E2D0E941D037A
:100A700088E791E00E940F030983CE0101960E944E
:100A8000BB020E941D0361E070E080E090E00E94E4
:100A9000790283E791E00E94DE0261E070E080E08D
:100AA00090E00E94790285E792E00E940F036AE0DD
:100AB00070E080E090E00E9479020E94950167CF8B
:100AC000E7E9F2E01382128288EE93E0A0E0B0E062
:100AD00084839583A683B78384E091E091838083A8
:100AE00085EC90E09587848784EC90E097878687F3
:100AF00080EC90E0918B808B81EC90E0938B828BEB
:100B000082EC90E0958B848B86EC90E0978B868BC3
:100B1000118E128E138E148E0895A1E21A2EAA1B26
:100B2000BB1BFD010DC0AA1FBB1FEE1FFF1FA2179D
:100B3000B307E407F50720F0A21BB30BE40BF50B9A
:100B4000661F771F881F991F1A9469F76095709523
:100B5000809590959B01AC01BD01CF010895EE0FEA
:100B6000FF1F0590F491E02D099481E090E0F89446
:080B70000C94BA05F894FFCFC4
:100B78000000000026018F00BD007301EE00CC00CC
:100B8800E000313A360029012E0206030704D30596
:100B98009106220704080109000A000B0C0C000D3D
:100BA800100EA70F62102511831213132214F815C3
:100BB80062160717301818191D1A1C1BC71C001DB0
:100BC800B01E871F6B20FB21B6221023E9242A259B
:100BD80000261F2741280029592A7F2B3F2C882DC2
:100BE800312E093B350D0A003D3D3D3D3D3D3D3D26
:100BF8003D3D3D3D3D3D3D3D3D3D3D3D3D3D3D3D1D
:100C08003D3D3D3D0049444C4500466173742054C8
:100C180058207265616479004672657175656E6306
:100C2800792073796E74686573697A657220636177
:100C38006C6962726174696F6E2069732072756E77
:100C48006E696E6700504C4C20697320736574742C
:100C58006C696E67005258204649464F2068617398
:100C6800206F766572666C6F7765642E20526561B9
:100C780064206F757420616E792075736566756C74
:100C880020646174612C207468656E20666C7573CD
:100C98006820746865204649464F20776974682043
:100CA80053465258005458204649464F20686173AD
:100CB80020756E646572666C6F7765642E2041637B
:100CC8006B6E6F776C65646765207769746820530D
:100CD80046545800627974657320617661696C6165
:100CE800626C6520002D2D2D2D2D2D2D2D2D2D2DBA
:0E0CF8002D2D2D2D2D2D2D2D2D2D2D2D0000D2
:00000001FF
