:100000000C9462000C948A000C948A000C948A0070
:100010000C948A000C948A000C948A000C948A0038
:100020000C948A000C948A000C948A000C948A0028
:100030000C948A000C948A000C948A000C948A0018
:100040000C9442030C948A000C9410030C94EA0262
:100050000C948A000C948A000C948A000C948A00F8
:100060000C948A000C948A000000000023002600F3
:10007000290000000000240027002A0000000000E2
:10008000250028002B0004040404040404040202D4
:100090000202020203030303030301020408102007
:1000A0004080010204081020010204081020000012
:1000B0000008000201000003040700000000000027
:1000C0000000490411241FBECFEFD8E0DEBFCDBF32
:1000D00011E0A0E0B1E0E6E0F9E002C005900D9289
:1000E000A437B107D9F722E0A4E7B1E001C01D921F
:1000F000AB31B207E1F710E0C2E6D0E004C02197CF
:10010000FE010E947604C136D107C9F70E948C0314
:100110000C9481040C9400008CBD9DBD0895CF9279
:10012000DF92EF92FF920F931F93CF93DF936C01B7
:100130007A018B01C0E0D0E0CE15DF0581F0D80157
:100140006D918D01D601ED91FC910190F081E02D32
:10015000C6010995892B11F02196EECF7E01C701CA
:10016000DF91CF911F910F91FF90EF90DF90CF9093
:100170000895089580E090E00895FC01538D448D2A
:10018000252F30E0842F90E0821B930B541710F042
:10019000CF96089501970895FC01918D828D98174F
:1001A00061F0828DDF01A80FB11D5D968C91928D5B
:1001B0009F5F9F73928F90E008958FEF9FEF089558
:1001C000FC01918D828D981731F0828DE80FF11D21
:1001D000858D90E008958FEF9FEF0895FC01918D3C
:1001E000228D892F90E0805C9F4F821B91098F7335
:1001F000992708958DE791E00E94EE0021E0892B78
:1002000009F420E0822F0895FC01848DDF01A80FFE
:10021000B11DA35ABF4F2C91848D90E001968F732E
:100220009927848FA689B7892C93A089B1898C914D
:10023000837080648C93938D848D981306C002889C
:10024000F389E02D80818F7D80830895EF92FF9266
:100250000F931F93CF93DF93EC0181E0888F9B8DE9
:100260008C8D981305C0E889F989808185FD26C0A9
:10027000F62E0B8D10E00F5F1F4F0F731127E02E2E
:100280008C8DE8120CC00FB607FCFACFE889F9890B
:10029000808185FFF5CFCE010E940401F1CF8B8DC7
:1002A000FE01E80FF11DE35AFF4FF0829FB7F8946B
:1002B0000B8FEA89FB89808180620AC09FB7F8941E
:1002C000EE89FF896083E889F98980818370806481
:1002D00080839FBF81E090E0DF91CF911F910F91CC
:1002E000FF90EF900895CF93DF93EC01888D8823E2
:1002F000C9F0EA89FB89808185FD05C0A889B98993
:100300008C9186FD0FC00FB607FCF5CF808185FF6D
:10031000F2CFA889B9898C9185FFEDCFCE010E94DB
:100320000401E7CFDF91CF91089580E090E0892B21
:1003300029F00E94FA0081110C9400000895833086
:1003400081F028F4813099F08230A1F0089587304F
:10035000A9F08830B9F08430D1F4809180008F7D8D
:1003600003C0809180008F7780938000089584B5CA
:100370008F7702C084B58F7D84BD08958091B000D1
:100380008F7703C08091B0008F7D8093B000089577
:100390001F93CF93DF93E8EBF0E09491E4EAF0E071
:1003A000D491E0E9F0E0C491CC23D1F0182F992347
:1003B00019F0892F0E949F01EC2FF0E0EE0FFF1F34
:1003C000E458FF4FA591B4919FB7F894111104C060
:1003D0008C91D095D82302C0EC91DE2BDC939FBF8B
:1003E000DF91CF911F910895CF93DF9390E0FC01AF
:1003F000E656FF4F2491FC01EA57FF4F8491882372
:1004000061F190E0880F991FFC01EE58FF4FC591F4
:10041000D491FC01E458FF4FA591B491611109C03A
:100420009FB7F8948881209582238883EC912E23AE
:100430000BC0623061F49FB7F8948881322F3095F9
:1004400083238883EC912E2B2C939FBF06C08FB7FC
:10045000F894E8812E2B28838FBFDF91CF910895E8
:100460003FB7F8948091790190917A01A0917B0136
:10047000B0917C0126B5A89B05C02F3F19F00196CD
:10048000A11DB11D3FBFBA2FA92F982F8827820F1A
:10049000911DA11DB11DBC01CD0143E0660F771F69
:1004A000881F991F4A95D1F708958F929F92AF9216
:1004B000BF92CF92DF92EF92FF926B017C010E947C
:1004C00030024B015C01C114D104E104F104F1F0EC
:1004D0000E943002DC01CB0188199909AA09BB09E5
:1004E000883E9340A105B10570F321E0C21AD108FE
:1004F000E108F10888EE880E83E0981EA11CB11C6B
:10050000C114D104E104F10419F7DDCFFF90EF909D
:10051000DF90CF90BF90AF909F908F9008958FB74E
:10052000F89480911A028FBF08958EBD00000DB41B
:1005300007FEFDCF8EB50895AF92BF92CF92DF92A6
:10054000EF92FF920F931F93CF93DF93EC0180E51F
:1005500091E00E948C0080E00E94C8010AEB10E04C
:1005600096EAE92E90E0F92E22E9C22E20E0D22E62
:10057000F8018491F701A490F601B490BB20A9F092
:1005800081110E949F01EB2DF0E0EE0FFF1FE85953
:10059000FF4FA591B4918C918A2139F061E070E010
:1005A00080E090E00E945502E3CF88810E9495028E
:1005B000C82F81E00E94C8018C2FDF91CF911F913D
:1005C0000F91FF90EF90DF90CF90BF90AF90089584
:1005D0000E947C041F920F920FB60F9211242F934A
:1005E0003F934F935F936F937F938F939F93AF93BB
:1005F000BF93EF93FF938DE791E00E940401FF9179
:10060000EF91BF91AF919F918F917F916F915F918A
:100610004F913F912F910F900FBE0F901F90189503
:100620001F920F920FB60F9211242F938F939F93C7
:10063000EF93FF93E0918D01F0918E018081E09125
:100640009301F091940182FD12C0908180919601F6
:100650008F5F8F7320919701821751F0E09196017F
:10066000F0E0E358FE4F958F8093960101C08081A2
:10067000FF91EF919F918F912F910F900FBE0F904F
:100680001F9018951F920F920FB60F9211242F935F
:100690003F938F939F93AF93BF93809175019091F8
:1006A0007601A0917701B09178013091740126E034
:1006B000230F2D3720F40296A11DB11D05C029E896
:1006C000230F0396A11DB11D209374018093750122
:1006D00090937601A0937701B0937801809179018E
:1006E00090917A01A0917B01B0917C010196A11DAE
:1006F000B11D8093790190937A01A0937B01B0930F
:100700007C01BF91AF919F918F913F912F910F905D
:100710000FBE0F901F901895789484B5826084BDA9
:1007200084B5816084BD85B5826085BD85B58160F5
:1007300085BD80916E00816080936E001092810073
:10074000809181008260809381008091810081602E
:1007500080938100809180008160809380008091EF
:10076000B10084608093B1008091B000816080937B
:10077000B00080917A00846080937A0080917A0042
:10078000826080937A0080917A008E7F80937A00D5
:1007900080917A00806880937A001092C10061E0B5
:1007A0008AE00E94F40181E00E94C80160E083E0D9
:1007B0000E94F40160E082E00E94F401E0918D016A
:1007C000F0918E0182E08083E0918901F0918A01AD
:1007D0001082E0918B01F0918C0187E6808310926A
:1007E0009501E0919101F091920186E08083E09182
:1007F0008F01F0919001808180618083E0918F0171
:10080000F0919001808188608083E0918F01F09168
:100810009001808180688083E0918F01F091900148
:1008200080818F7D808380E591E00E948C0080E054
:100830000E94C80180E30E94950264E670E080E0B7
:1008400090E00E945502C5E1D1E003E711E00C17EA
:100850001D0721F089910E949502F9CF84E30E943F
:10086000950281E00E94C80184E191E00E949C020F
:1008700083E191E00E949C0282E191E00E949C024F
:1008800064E670E080E090E00E9455020E949501CD
:10089000FDCFEDE7F1E01382128288EE93E0A0E055
:1008A000B0E084839583A683B78384E091E091834D
:1008B000808385EC90E09587848784EC90E097872F
:1008C000868780EC90E0918B808B81EC90E0938B1D
:1008D000828B82EC90E0958B848B86EC90E0978BFA
:1008E000868B118E128E138E148E0895EE0FFF1FBD
:1008F0000590F491E02D099481E090E0F8940C9437
:060900008104F894FFCF12
:100906000000000026018F00BD007301EE00CC0040
:10091600E000313A360029012E0206030704D3050A
:100926009106220704080109000A000B0C0C000DB1
:10093600100EA70F62102511831213132214F81537
:1009460062160717301818191D1A1C1BC71C001D24
:10095600B01E871F6B20FB21B6221023E9242A250F
:1009660000261F2741280029592A7F2B3F2C882D36
:04097600312E090015
:00000001FF
